{
  "contractName": "DNextTokenWhitelist",
  "abi": [
    {
      "inputs": [],
      "payable": false,
      "stateMutability": "nonpayable",
      "type": "constructor"
    },
    {
      "constant": false,
      "inputs": [],
      "name": "register",
      "outputs": [],
      "payable": false,
      "stateMutability": "nonpayable",
      "type": "function"
    },
    {
      "constant": false,
      "inputs": [],
      "name": "unregister",
      "outputs": [],
      "payable": false,
      "stateMutability": "nonpayable",
      "type": "function"
    },
    {
      "constant": true,
      "inputs": [
        {
          "name": "anAddress",
          "type": "address"
        }
      ],
      "name": "isRegistered",
      "outputs": [
        {
          "name": "registered",
          "type": "bool"
        }
      ],
      "payable": false,
      "stateMutability": "view",
      "type": "function"
    }
  ],
  "bytecode": "0x608060405234801561001057600080fd5b50336000806101000a81548173ffffffffffffffffffffffffffffffffffffffff021916908373ffffffffffffffffffffffffffffffffffffffff16021790555061029e806100606000396000f300608060405260043610610057576000357c0100000000000000000000000000000000000000000000000000000000900463ffffffff1680631aa3a0081461005c578063c3c5a54714610073578063e79a198f146100ce575b600080fd5b34801561006857600080fd5b506100716100e5565b005b34801561007f57600080fd5b506100b4600480360381019080803573ffffffffffffffffffffffffffffffffffffffff16906020019092919050505061016a565b604051808215151515815260200191505060405180910390f35b3480156100da57600080fd5b506100e36101ec565b005b600180600033604051808273ffffffffffffffffffffffffffffffffffffffff1673ffffffffffffffffffffffffffffffffffffffff166c0100000000000000000000000002815260140191505060405180910390206000191660001916815260200190815260200160002060006101000a81548160ff021916908315150217905550565b60006001600083604051808273ffffffffffffffffffffffffffffffffffffffff1673ffffffffffffffffffffffffffffffffffffffff166c0100000000000000000000000002815260140191505060405180910390206000191660001916815260200190815260200160002060009054906101000a900460ff169050919050565b60006001600033604051808273ffffffffffffffffffffffffffffffffffffffff1673ffffffffffffffffffffffffffffffffffffffff166c0100000000000000000000000002815260140191505060405180910390206000191660001916815260200190815260200160002060006101000a81548160ff0219169083151502179055505600a165627a7a72305820c197d6cbb9d04988ede4692cf15f5ce39e251587e11259c60f0f452f0550e9830029",
  "source": "// 사전 등록을 위한 계약 작성\r\npragma solidity ^0.4.24;\r\ncontract DNextTokenWhitelist {\r\n    address owner;\r\n    function DNextTokenWhitelist() public{\r\n        owner = msg.sender;\r\n    }\r\n    mapping(bytes32 => bool) whitelist;//whitelist가 저장된 상태변수 설정.\r\n    //mapping 자료형은 키, 값 형태로 구성된 자료의 집합.\r\n    // 32바이트 데이터를 키로 가지고 bool자료형의 데이터를 값으로 가진다.\r\n    // 이더리움 주소의 해시값에 대해 주소가 등록되어 있는지 확인하기 위함, 참여자들의 프라이버시도 보호해줌.\r\n\r\n    function register() external {\r\n        whitelist[keccak256(msg.sender)] = true;\r\n    }// msg.sender의 해쉬값을 keccak256함수를 통해 구한뒤, whitelist의 변수의 값을 true로 만들어줌\r\n    // 계약계정 내부에 있는 저장소에 해당하는 상태 변수에 영속적으로 저장\r\n    // 참여자의 주소값 그 자체가 저장되는 것이 아니고 해시값만이 저장되어 있어서 참여자의 프라이버시를 보장.\r\n    function unregister() external{\r\n        whitelist[keccak256(msg.sender)] = false;\r\n    }\r\n    function isRegistered(address anAddress) public view returns (bool registered){\r\n        return whitelist[keccak256(anAddress)];\r\n    } //view 키워드는 블록체인의 상태를 변경시키지 않음을 의미함.\r\n    \r\n}",
  "sourcePath": "C:\\Users\\wldnr\\blockchain\\project\\contracts\\DNextTokenWhitelist.sol",
  "compiler": {
    "name": "solc",
    "version": "0.4.24+commit.e67f0147.Emscripten.clang"
  },
  "schemaVersion": "3.4.1",
  "updatedAt": "2021-06-01T11:51:18.064Z",
  "devdoc": {
    "methods": {}
  },
  "userdoc": {
    "methods": {}
  }
}